:100000000C945D000C9485000C9485000C94850084
:100010000C9485000C9485000C9485000C9485004C
:100020000C9485000C9485000C9485000C940304BA
:100030000C9485000C9485000C9485000C9485002C
:100040000C94B9030C9485000C9487030C94610301
:100050000C9485000C9485000C9485000C9485000C
:100060000C9485000C9485000000000024002700FB
:100070002A0000000000250028002B0004040404CE
:100080000404040402020202020203030303030342
:10009000010204081020408001020408102001021F
:1000A00004081020000000080002010000030407FB
:1000B0000000000000000000C40411241FBECFEFA8
:1000C000D8E0DEBFCDBF11E0A0E0B1E0EAECF0E1A6
:1000D00002C005900D92A031B107D9F721E0A0E14F
:1000E000B1E001C01D92A53EB207E1F710E0CDE5F9
:1000F000D0E004C02197FE010E945808CC35D107FA
:10010000C9F70E9422050C9463080C940000CF925A
:10011000DF92EF92FF92DC01A03282E0B8070CF090
:100120003EC0B7FD06C0A53BB1052CF0A4EBB0E086
:1001300002C0A0E0B0E08091E30128E830E069016E
:10014000C81AD10887FDD394CC0CDD1CCC0CDD1C67
:100150000D2C000CEE08FF088091E40128E532E048
:10016000281B310987FD3395220F331F220F331FC0
:10017000A901330F660B770B9A01AB012C193D09CE
:100180004E095F090E941A0724EB30E040E050E07E
:100190000E94F006C20ED31EE41EF51ED6019091F9
:1001A000E2019C3098F58091E30148E850E0481B5B
:1001B000510987FD5395440F551F440F551FA41730
:1001C000B5078CF08091E40128E532E0281B310965
:1001D00087FD3395220F331F220F331FAD012A17DE
:1001E0003B070CF4A90142505109440F551F2FB78A
:1001F000F894892F90E0FC01EE0FFF1F8E0F9F1FD8
:10020000FC01E354FE4F528341832FBFFF90EF90D8
:10021000DF90CF900895CF92DF92EF92FF920F93ED
:100220001F93CF93DF936C017A018B01C0E0D0E084
:10023000CE15DF0589F0D8016D918D01D601ED91C4
:10024000FC910190F081E02DC6010995892B11F4F4
:100250007E0102C02196ECCFC701DF91CF911F91A3
:100260000F91FF90EF90DF90CF900895FC01918D5A
:10027000828D981761F0828DDF01A80FB11D5D9608
:100280008C91928D9F5F9F73928F90E008958FEF76
:100290009FEF0895FC01918D828D981731F0828D2A
:1002A000E80FF11D858D90E008958FEF9FEF089581
:1002B000FC01918D228D892F90E0805C9F4F821BE5
:1002C00091098F739927089580E291E00E94580167
:1002D00021E0892B09F420E0822F0895FC01848D10
:1002E000DF01A80FB11DA35ABF4F2C91848D90E060
:1002F00001968F739927848FA689B7892C93A0893B
:10030000B1898C9180648C93938D848D981306C0F1
:100310000288F389E02D80818F7D80830895EF929C
:10032000FF920F931F93CF93DF93EC0181E0888FAF
:100330009B8D8C8D981305C0E889F989808185FD96
:1003400024C0F62E0B8D10E00F5F1F4F0F73112787
:10035000E02E8C8DE8120CC00FB607FCFACFE889AE
:10036000F989808185FFF5CFCE010E946E01F1CF22
:100370008B8DFE01E80FF11DE35AFF4FF0820B8FCA
:10038000EA89FB898081806207C0EE89FF896083EA
:10039000E889F98980818064808381E090E0DF9141
:1003A000CF911F910F91FF90EF900895CF93DF931E
:1003B000EC01888D8823C9F0EA89FB89808185FD5D
:1003C00005C0A889B9898C9186FD0FC00FB607FCBE
:1003D000F5CF808185FFF2CFA889B9898C9185FFFF
:1003E000EDCFCE010E946E01E7CFDF91CF9108954E
:1003F00080E090E0892B29F00E94640181110C9427
:100400000000089590E0FC01EC55FF4F3491FC0191
:10041000E057FF4F2491FC01E458FF4FE491EE2395
:1004200009F43BC0332339F1333091F038F43130E3
:10043000A9F0323001F584B58F7D12C0373091F0CC
:100440003830A1F03430B9F4809180008F7D03C042
:10045000809180008F77809380000DC084B58F7766
:1004600084BD09C08091B0008F7703C08091B00037
:100470008F7D8093B000F0E0EE0FFF1FEE58FF4F2E
:10048000A591B4918FB7F894EC91611103C02095B8
:100490002E2301C02E2B2C938FBF0895CF93DF9373
:1004A00090E0FC01E057FF4F2491FC01E458FF4F1E
:1004B0008491882361F190E0880F991FFC01E8592D
:1004C000FF4FC591D491FC01EE58FF4FA591B49117
:1004D000611109C09FB7F894888120958223888391
:1004E000EC912E230BC0623061F49FB7F8943881F1
:1004F000822F809583238883EC912E2B2C939FBF92
:1005000006C08FB7F894E8812E2B28838FBFDF9128
:10051000CF9108953FB7F8948091160190911701FB
:10052000A0911801B091190126B5A89B05C02F3FD5
:1005300019F00196A11DB11D3FBFBA2FA92F982F09
:100540008827820F911DA11DB11DBC01CD0142E084
:10055000660F771F881F991F4A95D1F708958F92CC
:100560009F92AF92BF92CF92DF92EF92FF926B0178
:100570007C010E948A024B015C01C114D104E10498
:10058000F104F1F00E948A02DC01CB01881999097B
:10059000AA09BB09883E9340A105B10570F321E08B
:1005A000C21AD108E108F10888EE880E83E0981E8F
:1005B000A11CB11CC114D104E104F10419F7DDCF71
:1005C000FF90EF90DF90CF90BF90AF909F908F9073
:1005D00008958AE590E00E94870060E085E00E942F
:1005E000020283E090E00197F1F761E085E00E946C
:1005F000020283E290E00197F1F760E085E00E945B
:1006000002022AE939E949EB50E460E070E0CB01ED
:100610000E94530720E030E040E251E40E9453077B
:100620000E94C50770931D0160931C01089561E04D
:100630008CE00E94020261E08DE00E94020261E013
:1006400083E00E944E0261E083E00E94020261E0CA
:100650008BE00E944E0261E08BE00C94020260E0AD
:100660008CE00E94020261E08DE00E94020261E0E3
:1006700083E00E944E0261E083E00E94020261E09A
:100680008BE00E944E0261E08BE00C94020261E07C
:100690008CE00E94020261E08DE00E94020261E0B3
:1006A00083E00E944E0260E083E00E94020261E06B
:1006B0008BE00E944E0260E08BE00C9402020E94EC
:1006C0005E081F920F920FB60F9211242F933F9343
:1006D0004F935F936F937F938F939F93AF93BF934A
:1006E000EF93FF9380E291E00E946E01FF91EF9102
:1006F000BF91AF919F918F917F916F915F914F913A
:100700003F912F910F900FBE0F901F9018951F9241
:100710000F920FB60F9211242F938F939F93EF9305
:10072000FF93E0913001F09131018081E091360139
:10073000F091370182FD12C09081809139018F5F65
:100740008F7320913A01821751F0E0913901F0E066
:10075000E05EFE4F958F8093390101C08081FF914B
:10076000EF919F918F912F910F900FBE0F901F903F
:1007700018951F920F920FB60F9211242F933F934B
:100780008F939F93AF93BF93809112019091130128
:10079000A0911401B09115013091110123E0230FB4
:1007A0002D3720F40196A11DB11D05C026E8230FA9
:1007B0000296A11DB11D2093110180931201909307
:1007C0001301A0931401B09315018091160190912B
:1007D0001701A0911801B09119010196A11DB11D39
:1007E0008093160190931701A0931801B0931901FB
:1007F000BF91AF919F918F913F912F910F900FBE1D
:100800000F901F9018951F920F920FB60F92112400
:100810002F933F934F935F936F937F938F939F9308
:10082000AF93BF93EF93FF938091100187FF05C0B3
:1008300010928500109284001BC020911001022E9E
:10084000000C330B8091E10190E02817390784F404
:1008500080911001082E000C990BFC01EE0FFF1F78
:100860008E0F9F1FFC01E354FE4F808186FD15C053
:10087000809110018F5F8093100120911001022E52
:10088000000C330B8091E10190E028173907C4F484
:10089000809110018C3064F113C080911001082EFA
:1008A000000C990BFC01EE0FFF1F8E0F9F1FFC0128
:1008B000E354FE4F808160E08F730E940202D8CF24
:1008C0008091840090918500049680349C4918F4AE
:1008D00080E49CE905C08091840090918500049695
:1008E00090938900809388008FEF809310013BC024
:1008F000209184003091850080911001082E000C19
:10090000990BFC01EE0FFF1F8E0F9F1FFC01E3549C
:10091000FE4F81819281820F931F90938900809373
:10092000880080911001082E000C990BFC01EE0F3D
:10093000FF1F8E0F9F1FFC01E354FE4F808186FF37
:1009400012C080911001082E000C990BFC01EE0FD3
:10095000FF1F8E0F9F1FFC01E354FE4F808161E05B
:100960008F730E940202FF91EF91BF91AF919F910F
:100970008F917F916F915F914F913F912F910F9048
:100980000FBE0F901F901895109223011092220114
:1009900088EE93E0A0E0B0E08093240190932501DD
:1009A000A0932601B093270184E091E09093210168
:1009B0008093200185EC90E090932D0180932C0191
:1009C00084EC90E090932F0180932E0180EC90E0D6
:1009D000909331018093300181EC90E0909333014A
:1009E0008093320182EC90E0909335018093340142
:1009F00086EC90E090933701809336011092390194
:100A000010923A0110923B0110923C018091E10159
:100A10008C30A0F491E0980F9093E1018093E20173
:100A200090E0FC01EE0FFF1F8E0F9F1FFC01E354AF
:100A3000FE4F88EB9BE09283818308958FEF809334
:100A4000E2010895789484B5826084BD84B58160A4
:100A500084BD85B5826085BD85B5816085BD809189
:100A60006E00816080936E00109281008091810001
:100A700082608093810080918100816080938100F9
:100A8000809180008160809380008091B1008460BB
:100A90008093B1008091B00081608093B00080911C
:100AA0007A00846080937A0080917A0082608093DB
:100AB0007A0080917A00816080937A0080917A0038
:100AC000806880937A001092C100E0913001F0912B
:100AD000310182E08083E0912C01F0912D011082A0
:100AE000E0912E01F0912F018FEC8083109238015C
:100AF000E0913401F091350186E08083E09132018C
:100B0000F0913301808180618083E0913201F09126
:100B10003301808188608083E0913201F09133015C
:100B2000808180688083E0913201F091330180817F
:100B30008F7D808361E08CE00E944E0261E083E063
:100B40000E944E0261E08DE00E944E0261E08DE065
:100B50000E944E0260E084E00E944E0261E085E067
:100B60000E944E028091E2018C3008F051C061E099
:100B700089E00E944E028091E201E82FF0E09F019F
:100B8000220F331FE20FF31FE354FE4F9081907C3E
:100B9000996090831092E3011092E4016CE00E944E
:100BA0004C089CE0899FB001112440E050E09A017C
:100BB000260F371FF901EE0FFF1F2E0F3F1FF90100
:100BC000E354FE4F908196FD16C04F5F5F4F4C304F
:100BD000510569F781110FC01092800082E0809367
:100BE00081001092850010928400B19A80916F006C
:100BF000826080936F00E091E201F0E0CF01880F06
:100C0000991FE80FF91FE354FE4F808180648083B1
:100C1000C3E0D0E008E010E082E0E82EF12C8AE5A5
:100C200090E00E9487000E94E90280911C0190914F
:100C30001D018A3091058CF40E94470364E670E040
:100C400080E090E00E94AF020E94170368EC70E021
:100C500080E090E00E94AF0203C049970CF040C0D2
:100C60000E94470364E670E080E090E00E94AF02DB
:100C70000E94E9026AEF70E080E090E00E94AF021B
:100C800081EB90E00E9487006AEF70E080E090E0E6
:100C90000E94AF0260E085E00E940202CE0101974F
:100CA000F1F760E085E00E9402022AE939E949EBA8
:100CB00050E460E070E0CB010E94530720E030E098
:100CC00040E251E40E9453070E94C50770931B0144
:100CD00060931A016AEF70E080E090E00E94AF023A
:100CE00080911A0190911B0197FF05C0F0921F019E
:100CF000E0921E0106C00A97CCF310931F010093E7
:100D00001E0180911E0190911F018230910579F49E
:100D10000E94170360E273E080E090E00E94AF025F
:100D20000E942F0368EC70E080E090E054C08630B1
:100D3000910509F50E94170364E670E080E090E0F9
:100D40000E94AF0261E08CE00E94020260E08DE050
:100D50000E94020261E083E00E944E0261E083E0B3
:100D60000E94020261E08BE00E944E0261E08BE093
:100D70000E9402020DC08430910579F40E9417038D
:100D800068E572E080E090E00E94AF020E942F03CD
:100D900068E572E080E090E01EC00897F1F460E042
:100DA0008CE00E94020260E08DE00E94020261E09D
:100DB00083E00E944E0261E083E00E94020261E053
:100DC0008BE00E944E0261E08BE00E94020264E62A
:100DD00070E080E090E00E94AF020E94F8011FCF17
:100DE000052E97FB1EF400940E94070757FD07D0BD
:100DF0000E94220707FC03D04EF40C94070750957D
:100E00004095309521953F4F4F4F5F4F08959095F6
:100E10008095709561957F4F8F4F9F4F08950E94E9
:100E20004407A59F900DB49F900DA49F800D911D28
:100E300011240895B7FF0C940F070E940F07821B1F
:100E4000930B0895A1E21A2EAA1BBB1BFD010DC036
:100E5000AA1FBB1FEE1FFF1FA217B307E407F5076A
:100E600020F0A21BB30BE40BF50B661F771F881F46
:100E7000991F1A9469F760957095809590959B01DC
:100E8000AC01BD01CF010895A29FB001B39FC00185
:100E9000A39F700D811D1124911DB29F700D811DA6
:100EA0001124911D08950E9467070C9412080E9456
:100EB0000B0858F00E94040840F029F45F3F29F025
:100EC0000C94FB0751110C9446080C9401080E94E5
:100ED000230868F39923B1F3552391F3951B550B20
:100EE000BB27AA2762177307840738F09F5F5F4FFD
:100EF000220F331F441FAA1FA9F335D00E2E3AF03C
:100F0000E0E832D091505040E695001CCAF72BD053
:100F1000FE2F29D0660F771F881FBB1F26173707A4
:100F20004807AB07B0E809F0BB0B802DBF01FF27D6
:100F300093585F4F3AF09E3F510578F00C94FB07B1
:100F40000C9446085F3FE4F3983ED4F3869577957A
:100F50006795B795F7959F5FC9F7880F911D96958F
:100F6000879597F90895E1E0660F771F881FBB1FEB
:100F7000621773078407BA0720F0621B730B840B98
:100F8000BA0BEE1F88F7E09508950E94CC0768948D
:100F9000B1110C94460808950E942B0888F09F57C1
:100FA00098F0B92F9927B751B0F0E1F0660F771F8D
:100FB000881F991F1AF0BA95C9F714C0B13091F083
:100FC0000E944508B1E008950C944508672F782FDA
:100FD0008827B85F39F0B93FCCF386957795679548
:100FE000B395D9F73EF490958095709561957F4FB4
:100FF0008F4F9F4F089597F99F6780E870E060E0FA
:1010000008959FEF80EC089500240A9416161706A1
:1010100018060906089500240A94121613061406E9
:1010200005060895092E0394000C11F4882352F04C
:10103000BB0F40F4BF2B11F460FF04C06F5F7F4F04
:101040008F4F9F4F089557FD9058440F551F59F0EB
:101050005F3F71F04795880F97FB991F61F09F3FA5
:1010600079F087950895121613061406551FF2CFCE
:101070004695F1DF08C0161617061806991FF1CF1E
:1010800086957105610508940895E894BB27662745
:101090007727CB0197F90895991B79E004C0991F30
:1010A000961708F0961B881F7A95C9F780950895C2
:1010B000EE0FFF1F0590F491E02D099481E090E080
:0A10C000F8940C946308F894FFCF35
:1010CA00000000008F010B01580136014A01D601C8
:00000001FF
